:020000040800F2
:1000000008070020910100084F1C00087D1500081A
:100010004D1C00088F040008BB1C000800000000F5
:10002000000000000000000000000000531C000859
:100030001306000800000000511C0008551C0008B1
:10004000AB010008AB010008AB010008AB010008E0
:10005000AB010008AB010008AB010008AB010008D0
:10006000AB010008AB010008AB010008AB010008C0
:10007000AB010008AB010008AB010008AB010008B0
:10008000AB010008AB010008AB010008AB010008A0
:10009000AB010008AB010008AB0100081506000821
:1000A000AB010008AB010008AB010008AB01000880
:1000B000AB010008AB010008AB010008AB01000870
:1000C000AB010008AB010008AB010008AB01000860
:1000D000AB010008AB010008AB010008AB01000850
:1000E000AB010008AB010008AB01000800F002F80A
:1000F00000F03FF80AA090E8000C82448344AAF183
:100100000107DA4501D100F034F8AFF2090EBAE880
:100110000F0013F0010F18BFFB1A43F0010318473B
:1001200094240000B4240000103A24BF78C878C199
:10013000FAD8520724BF30C830C144BF04680C60ED
:10014000704700000023002400250026103A28BF35
:1001500078C1FBD8520728BF30C148BF0B60704739
:10016000642900F07D80002070471FB51FBD10B5C9
:1001700010BD00F052F91146FFF7F7FF01F0AEFD98
:1001800000F070F903B4FFF7F2FF03BC00F078F958
:100190000948804709480047FEE7FEE7FEE7FEE71B
:1001A000FEE7FEE7FEE7FEE7FEE7FEE70448054957
:1001B000054A064B70470000B91C0008ED00000816
:1001C0000801002008070020080300200803002081
:1001D0000FB41CB5074B06AA7B44694600900598EE
:1001E00000F003F90020694600F012F91CBC5DF82C
:1001F00014FB0000350200002DE9F0410E460446D4
:10020000002020622046E168884730B3252805D0C9
:10021000D4E901219047206A401CF2E7E1682046BA
:1002200000278847050018D0A5F14100192802D8F9
:1002300020354FF400673246294620462760FFF7F5
:100240008FFF40B1012804D0F61D26F007060836BE
:10025000D8E7361DD6E72846DAE7206ABDE8F08100
:100260002DE9F0410646002410687529314616A58F
:1002700010D0AFF30080002802DA404213A507E057
:1002800031688A0701D512A502E0490704D511A5F6
:10029000012401E0AFF3008000210A2206F12407C7
:1002A00009E0B0FBF2FCB0FBF2F302FB1C003030C3
:1002B00078541846491C0028F3D123462A46304674
:1002C000BDE8F04100F032B8000000002D00000051
:1002D0002B000000200000004FF0000200B5134684
:1002E00094469646203922BFA0E80C50A0E80C5056
:1002F000B1F12001BFF4F7AF090728BFA0E80C5007
:1003000048BF0CC05DF804EB890028BF40F8042BFF
:1003100008BF704748BF20F8022B11F0804F18BF6C
:1003200000F8012B70477047704770472DE9F04780
:100330000D4699469246044600F124080168880655
:1003400004D5E06921F01001216000E00120A842FD
:1003500001DD471B00E00027A1697A1902EB0900C3
:10036000081AA0612078C00602D42046AFF30080AE
:10037000002608E0D4E901211AF806009047206A17
:10038000401C761C20624E45F4DB2078C0060AD55E
:100390002046AFF3008006E0D4E9012130209047E9
:1003A000206A401C2062381EA7F10107F4DC07E038
:1003B000D4E9012118F805009047206A401C20620A
:1003C000281EA5F10105F3DC2046AFF3008020785C
:1003D000000602D50220BDE8F0870120FBE70000FF
:1003E00001694A1C02610878704700B58FB0CDE9F9
:1003F00001310021059105497944CDE903101146E9
:100400006846FFF7F9FE0FB000BD0000E5FFFFFFF3
:100410000A6802F8010B0A607047754600F02CF874
:10042000AE4605006946534620F00700854618B0E1
:1004300020B5FFF7BBFEBDE820404FF000064FF0AF
:1004400000074FF000084FF0000B21F00701AC4609
:10045000ACE8C009ACE8C009ACE8C009ACE8C00928
:100460008D46704710B50446AFF300802046BDE8C6
:100470001040FFF787BE000000487047A80000202A
:1004800001491820ABBEFEE7260002007047FEE7D8
:1004900010B50022012100F087F8BDE810400520CA
:1004A00000F0ECB810B50446029821602271637127
:1004B000A0712820A0720620E0710C202072142068
:1004C00060720820E072322000F0D8F80022332158
:1004D000204600F069F800223321204600F064F83D
:1004E000052000F0CBF800223221204600F05CF815
:1004F000052000F0C3F800222021204600F054F827
:10050000052000F0BBF8E1790022204600F04CF80D
:10051000217A0022204600F047F8617A0022204626
:1005200000F042F8A17A0022204600F03DF80022B7
:100530000121204600F038F820460022BDE8104096
:10054000022100F031B830B4447900238C4201D844
:10055000641EE1B28479944201D8641EE2B232B1E1
:10056000012A06D0022A06D0032A06D007E00B464D
:1005700005E0403102E0143100E05431CBB230BC30
:1005800043F08001002200F00FB8012200F00CB807
:1005900070B50C46054603E02846641CFFF7F5FFDE
:1005A00021780029F8D170BD7CB506460807040EF5
:1005B000F07A01F0F00518B145F0080544F00804A0
:1005C000012A01D02AB108E045F0010544F00104F8
:1005D00003E025F0010524F0010445F004008DF846
:1005E0000400012000F04AF88DF8055044F00400A2
:1005F0008DF80600012000F041F84FF47A708DF874
:10060000074000903179042301AA306800F01EFAF7
:100610007CBD704770B54FF4807000F043F84FF424
:10062000007000F03FF8114E3068114D114CC005BC
:100630000AD42868401C286021460220401C8842B9
:10064000FCDB172000F0DEFC306880050DD40120B3
:1006500068600949002008600220401CA042FCDBC1
:10066000BDE87040172000F0CDBC70BD0808014007
:100670002800002020A107001000002070B50446CB
:1006800000F01AF90546601C02D0044800780444C2
:1006900000F012F9401BA042FAD370BD38000020D0
:1006A00070470000044910B50A68024202D0086091
:1006B000FFF7F6FF10BD0000140401402DE9F84FCC
:1006C000DFF8B8910024A9F1040B23460F2709F1A4
:1006D000040AABF1040EC9E00125A5402A40AA4254
:1006E0007DD1674ED1F804C0ACEB0608B44532D0DA
:1006F00014DCBCF1030F3AD009DCBCF1000F2AD0A6
:10070000BCF1010F1CD0BCF1020F31D11DE0BCF1D6
:10071000110F17D0BCF1120F2AD119E0B8F5881FBC
:1007200019D006DCB8F5803F15D0B8F5801F1FD171
:1007300011E0B8F5001F0ED0B8F5041F18D10AE07B
:10074000CB6815E0CB681B1D12E0CB6808330FE0C7
:10075000CB680C330CE08B682BB1012B4FF00803F6
:1007600003D0456104E0042302E0056100E00023BA
:10077000FF2A01D8064601E000F104064FEA84058D
:1007800001D9A5F12005D6F8008007FA05FC28EA72
:100790000C0803FA05F548EA0508C6F800804D681C
:1007A000ED0062D5374DAE6946F00106AE61AD6928
:1007B00024F0030605F001050095334D06EB050C0A
:1007C000DCF80850A607360F07FA06F825EA0805F0
:1007D000DFF8B880404503D14FF0000817E044E04F
:1007E000DFF8AC80404502D14FF001080FE0DFF8A0
:1007F000A480404502D14FF0020808E0DFF898805D
:10080000404502D14FF0030801E04FF0040808FA18
:1008100006F848EA0508CCF808804D68D9F8006069
:10082000ED024D4601D5164300E096432E604D681B
:10083000DAF80060AD02554601D5164300E0964354
:100840002E604D68DBF80060AD035D4601D51643B0
:1008500000E096432E604D68DEF80060ED037546BB
:1008600001D5164300E096432E60641C0D682A46AD
:10087000E5407FF431AFBDE8F88F00000804014087
:10088000000011100010024000000140000801406B
:10089000000C01400010014000140140C26821EA30
:1008A00002030A4043EA0241016170470AB1016153
:1008B00070470904FBE700000148806870470000AA
:1008C0003800002070B5040025D094F83D000025C4
:1008D00020B984F83C50204600F00EFB242084F818
:1008E0003D002068016821F0010101602068016875
:1008F00041F4004101602068016821F40041016079
:1009000000F062FC4D4A6168914201D84C4900E018
:100910004C49884201D2012070BD4B492368B0FB8D
:10092000F1F15E6826F03F060E435E606368934215
:1009300006D94FF4967359434FF47A73B1FBF3F130
:100940002368491C1E6A26F03F063143196261681C
:10095000914210D84900401EB0FBF1F2521CC2F384
:100960000B02042A01D2042022E0B0FBF1F0401C6B
:10097000C0F30B001CE0A268F2B301EBC10303EB70
:100980000116431EB3FBF6F35B1C43F480431B05C7
:1009900049D092B301EBC10202EB0111401EB0FB42
:1009A000F1F0401CC0F30B0040F4804040F40040E4
:1009B0002168CA694CF6FF739A431043C861D4E9B1
:1009C000071001432068026822F0C0021143016051
:1009D000D4E9030101432068826848F2FF339A4357
:1009E00011438160D4E9050108432168CA6822F0F7
:1009F000FF021043C86001E00EE016E020680168C5
:100A000041F0010101602564202084F83D00256348
:100A100084F83E50002070BD01EB4106431EB3FB3D
:100A2000F6F35B1CB3E70120C2E701EB4101401E76
:100A3000B0FBF1F0401CC0F30B00B7E7A08601004B
:100A400080841E0000093D0040420F002DE9F84F50
:100A50001F4690468A460446DDF82890FFF72CFF93
:100A6000054694F83D0020287FD1192301224049F2
:100A70002046009500F0E6FE002876D194F83C0070
:100A8000012872D0012084F83C0020680168C90761
:100A900003D1016841F0010101602068016821F47F
:100AA00000610160212084F83D00102084F83E00A0
:100AB00000262664C4F824806785608D20852D4833
:100AC000E0622B464A465146204600F06FFD90B941
:100AD000206841698069009036E02A4649462046F0
:100AE00000F08EFF50B1206C042804D1206801680A
:100AF00041F4007101600120BDE8F88F606A21684F
:100B000000780861606A401C6062618D491E6185E1
:100B1000218D491E89B2218522685369DB435B0719
:100B20000BD451B100781061606A401C6062608D26
:100B3000401E6085208D401E20852A46494620465D
:100B400000F054FE0028CED1208D0028C5D154F8E5
:100B50003D0B016841F400710160202004F81E097A
:100B6000E67766770020C7E7FFE70220C4E70000CA
:100B7000020010000000FFFF2DE9FF4F83B00025A9
:100B8000DDE910799A4693460446DDF848800095E1
:100B9000FFF792FE064694F83D0020287CD11923E9
:100BA000012285492046009600F04CFE0028F5D130
:100BB00094F83C0001286FD0012084F83C002068A4
:100BC0000168C90703D1016841F001010160206893
:100BD000016821F400610160222084F83D0040207A
:100BE00084F83E0025646762A4F82A90608D208511
:100BF0007248E062CDE9008653465A462046049981
:100C000000F022FD00287DD1208DDFF8B49120274F
:100C100068B1012814D00228206801681ED041F470
:100C2000806101602068416980690090B6E02068B9
:100C3000416981690091016841F400710160ADE092
:100C40002068016821F48061016072B62068416902
:100C500081690091016841F400710AE041F400618A
:100C6000016072B62068416981690091016821F4D0
:100C70008061016062B691E0032868D801280CD039
:100C8000022843464FF000024946204600960FD006
:100C900000F0D8FDB0BB10E08BE032464146204664
:100CA00000F076FE70BB20680069616A08706CE035
:100CB00000F0C8FD30BB72B634E02068016821F452
:100CC0008061016072B620680069616A0870606ABC
:100CD000401C6062208D401E2085608D401E608516
:100CE000384846F2A8110068B0FBF1F0C0EBC00034
:100CF00000EB80000090401E009008D02068406902
:100D0000C04300E029E040070CD50098F3E744F821
:100D1000305F6773A573206940F02000206162B6E0
:100D200025731AE02068016841F4007101602068B1
:100D30000069616A0870606A401C6062218D491E0A
:100D40002185618D491E618562B621681BE03246AE
:100D50004146204600F01CFE18B1012007B0BDE856
:100D6000F08F20680069616A0870606A401C6062E8
:100D7000218D491E2185618D491E618521684A6941
:100D8000D24352070AD409690170606A401C60624C
:100D9000208D401E2085608D401E6085208D00289E
:100DA0007FF46AAF84F83D7084F83E5084F83C507C
:100DB000D4E70220D2E70000020010000000FFFF8D
:100DC00004000100440000202DE9FF4F83B09A4643
:100DD000DDE9119793460446DDF84080FFF76CFD8E
:100DE000054694F83D0020287FD11923012240496F
:100DF0002046009500F026FD002876D194F83C00AE
:100E0000012872D0012084F83C0020680168C907DD
:100E100003D1016841F0010101602068016821F4FB
:100E200000610160212084F83D00402084F83E00EC
:100E300000262664C4F82480A4F82A90608D2085BA
:100E40002C48E062CDE9007553465A462046049985
:100E500000F078FC70B930E02A463946204600F0B0
:100E6000CFFD58B1206C042804D12068016841F4FA
:100E700000710160012007B0BDE8F08F606A216851
:100E800000780861606A401C6062218D491E89B249
:100E90002185628D521E628522685369DB435B07A0
:100EA0000BD469B100781061606A401C6062208DCB
:100EB000401E2085608D401E6085208D0028CBD18E
:100EC0002A463946204600F091FC0028CAD154F841
:100ED0003D0B016841F400710160202004F81E09F7
:100EE000E67766770020C6E7FFE70220C3E7000049
:100EF000020010000000FFFF10B586B00021009135
:100F000001910291039100680F4988421AD10F4C58
:100F1000A06940F00800A061A069694600F00800DF
:100F20000490C020009012200190032003900848F4
:100F3000FFF7C4FBE06940F40010E061E06900F4F1
:100F40000010049006B010BD005400400010024094
:100F5000000C0140024881680278114481607047AA
:100F600038000020074810B5016841F01001016009
:100F7000032000F081F80F2000F006F800F024F8BC
:100F8000002010BD0020024070B50D4D04464FF406
:100F90007A712878B1FBF0F00A490968B1FBF0F0EA
:100FA00000F0D8FA48B9102C07D200222146501E72
:100FB00000F042F800206C6070BD012070BD0000A0
:100FC00038000020440000200C4808B5816941F039
:100FD00001018161816901F001010091C16941F064
:100FE0008051C161C06900F08050009004484168A0
:100FF00021F0E06141F00071416008BD0010024045
:1010000000000140002809DB00F01F02012191408F
:101010004009800000F1E020C0F8801270470028ED
:1010200009DB00F01F02012191404009800000F11E
:10103000E020C0F800117047F0B40E4B1B680C465E
:10104000C3F30223C3F10705042D00D90425191D9C
:10105000072901D2002300E0DB1E012606FA05F174
:10106000491E214099409E40761E16403143F0BCF7
:1010700000F024BE0CED00E0064900F0070208680D
:101080004FF6FF03184040EA0220034A104308606D
:10109000704700000CED00E00000FA052DE9F04774
:1010A0000F46050061D0434E306800F00700B8429B
:1010B00009D2306820F0070038433060306800F013
:1010C0000700B84251D128683B4C810712D5400730
:1010D00003D5606840F4E06060602878000703D5BD
:1010E000606840F4605060606068A96820F0F000BB
:1010F000084360602878C00728D06868012810D0AD
:101100002168022810D0890700292EDA616821F0B1
:10111000030101436160FFF7CFFB804641F288394C
:101120000DE021688903EFE78901EDE7FFF7C4FBD4
:10113000A0EB0801494502D90320BDE8F0876068AB
:10114000696800F00C00B0EB810FEFD1306800F05F
:101150000700B8420BD9306820F0070038433060F0
:10116000306800F00700B84201D00120E5E7287898
:10117000400705D56068E96820F4E06008436060D6
:101180002878000706D56068296920F4605040EA95
:10119000C100606000F028F86168084AC1F30311DB
:1011A000515CC8400649086006480068FFF7ECFE3D
:1011B0000020C2E700200240001002409A250008EB
:1011C000440000203C0000200448054900684968AC
:1011D000044AC1F30221515CC8407047440000201A
:1011E00000100240AA2500080E4A51680E4801F07E
:1011F0000C03042B11D0082B0FD10C48C1F38343EF
:10120000C903C05C0AD55168084AC1F34041921E27
:10121000515C054A5043B0FBF1F070470449484324
:10122000704700000010024000127A008A25000872
:1012300000093D002DE9F84F040070D02078C04D22
:10124000C00749D06868C0F38100012807D06868EA
:10125000C0F38100022809D16868C00306D5286858
:10126000800339D560680028E7D035E06068B0F5C4
:10127000803F0BD010B1B0F5A02F11D0286820F41A
:1012800080302860286820F4802002E0286840F43C
:1012900080302860606890B1FFF70EFB06460AE0D8
:1012A000286840F480202860F0E700BFFFF704FBC7
:1012B000801B642873D828688003F7D50CE0FFF7FB
:1012C000FBFA064605E000BFFFF7F6FA801B64282C
:1012D000F0D828688003F7D420789A4E80074FF022
:1012E00001094FF0000839D5686810F00C0F07D0DD
:1012F0006868C0F38100022809D16868C00306D479
:101300002868800714D52069012808D110E02069D9
:10131000B0B1C6F80090FFF7CFFA074605E00AE142
:10132000FFF7CAFAC01B0228C4D828688007F7D57F
:101330002868616920F0F80040EAC10028600DE0EB
:10134000C6F80080FFF7B8FA074604E0FFF7B4FAE2
:10135000C01B022823D828688007F7D4207800070C
:101360002CD57948A169D9B1C0F80090FFF7A4FA4B
:10137000074604E0FFF7A0FAC01B02280FD8686AEE
:101380008007F7D571484FF4FA510068B0FBF1F0CF
:10139000009000BF0098411E0091FAD20EE080E05C
:1013A000C0F80080FFF788FA074604E0FFF784FAE8
:1013B000C01B022875D8686A8007F7D420784007D8
:1013C00060D5E8690027C00008D4E86940F0805083
:1013D000E861E869012700F0805000905C480168EE
:1013E000C90513D40168834641F480710160FFF799
:1013F00063FA824606E000BFFFF75EFAA0EB0A0040
:1014000064284ED8DBF80000C005F5D5E068012857
:101410000AD008B1052813D0286A20F001002862FC
:10142000286A20F0040002E0286A40F001002862E7
:10143000E06841F2883B98B1FFF73EFA82460BE044
:10144000286A40F004002862EEE700BFFFF734FA94
:10145000A0EB0A0159455AD8286A8007F6D50CE056
:10146000FFF72AFA824605E0FFF726FAA0EB0A0109
:1014700059454CD8286A8007F6D41FB1E86920F096
:101480008050E861E06988B36968C1F3810102298D
:1014900044D00228C6F8608004D0FFF70DFA044655
:1014A00038E034E0FFF708FA074604E0FFF704FAF3
:1014B000C01B02282BD828688001F7D4206AB0F519
:1014C000803F05D16868A16820F400300843686057
:1014D000D4E908010843696821F47411084368607D
:1014E000C6F86090FFF7E8F9044606E025E000BF83
:1014F000FFF7E2F9001B022809D828688001F7D518
:101500001BE000BFFFF7D8F9001B022802D9032017
:10151000BDE8F88F28688001F4D40EE00128F7D0E8
:101520006868226A00F48031914204D1616A00F453
:101530007010884201D00120EAE70020E8E70000AF
:101540000010024000004242800442424400002059
:101550000070004010B5401EB0F1807F01D3012023
:1015600010BD4FF0E02460610F21601700F0A6FB72
:101570000020A06107202061002010BDFEE7016867
:101580004A69D24352050FD46FF480624A61002148
:1015900040F8301F202242738173026942F0040236
:1015A000026101730120704700207047F8B50446BE
:1015B000C06A1E460D461746082807D0012805D0E8
:1015C00010F5803F02D0206B122804D120680168FA
:1015D00041F480710160134600224FF00111204652
:1015E000009600F02FF940B120680068C00502D5D0
:1015F0004FF4007020640320F8BD2069B0F5804FDF
:101600000ED00620216800EAD51040F0F0000861F5
:1016100033463A460B49204600F05CF978B902E0BF
:1016200005F0FE0000E0E8B2216808610549334694
:101630003A46891F204600F04DF90028DCD00120F1
:10164000F8BD0000080001002DE9F84F04460068CD
:1016500089460B9D01689846174641F480610160F8
:101660002068016841F48071016000954FF0011B12
:101670000022594620460A9B00F0E4F84FF4007A15
:1016800040B120680068C00501D5C4F840A003201F
:10169000BDE8F88F216809F0FE0008612B46284953
:1016A00020460A9A00F016F9F0BB2068416980696B
:1016B00000902A4620460A9900F0A2F940B1206C19
:1016C00004283AD12068016841F40071016034E0D7
:1016D000FEB2B8F1010F09D02168380A08612A4624
:1016E00020460A9900F08CF90028E8D120680661AC
:1016F0002A4620460A9900F083F90028DFD12068A5
:10170000016841F48071016000950022594620462D
:101710000A9B00F097F80028B3D1216809F0FF0078
:1017200040F00100086100E007E02B460449204634
:101730000A9A00F0CFF80028AAD00120A8E70000FC
:10174000020001002DE9F843044600680D46DDE97A
:10175000089701689846164641F4807101604B462F
:1017600000224FF001112046009700F06BF848B1BD
:1017700020680068C00502D54FF400702064032083
:10178000BDE8F883216805F0FE0008613B464A4643
:101790001549204600F09EF888B9206841698069A3
:1017A00000903A464946204600F02AF948B1206C9C
:1017B000042804D12068016841F40071016001200F
:1017C000DEE7F5B2B8F1010F09D02168300A0861EF
:1017D0003A464946204600F013F90028E7D1206830
:1017E00005610020CCE700000200010070B516463C
:1017F0000D4604461EE02046FFF7C1FE08B1012059
:1018000070BD681C16D0FFF757F8801BA84200D89F
:1018100085B920684069C04340070BD5002044F8D3
:10182000300F20216173A073216941F020012161F3
:101830002073E4E720684069C0434007DBD4002000
:1018400070BD00002DE9F047984617460D46044646
:10185000C1F30746DDF820902AE000BFB8F1FF3F52
:1018600026D0FFF729F8A0EB0901414502D8B8F1CD
:10187000000F1DD12068012E16D0806925EA0000D6
:101880000004000C12D00020B84211D1002044F80E
:10189000300F20216173A073216941F02001216183
:1018A00020730120BDE8F0874069E7E70120EBE7FE
:1018B0002068012E0AD0806925EA00000004000C8F
:1018C00006D00020B842C9D00020EBE74069F3E71A
:1018D0000120F7E72DE9F047984616460D460446E5
:1018E0004FF000094FF0200AC1F3074723E02068BA
:1018F0004069C043400515D42068016841F4007177
:10190000016021686FF480604861C4F8309084F809
:101910003DA084F83E90216C41F00401216484F8DC
:101920003C9021E0701C06D0FEF7C6FFA0EB08003B
:10193000B04203D816B1012F1FD021E02068012F3B
:1019400015D0806925EA00000004000C18D000BF03
:1019500044F8309F84F80DA084F80E90216941F07E
:101960002001216184F80C900120BDE8F0874069D6
:1019700025EA00000004000CEAD12068406901E07B
:101980002068806925EA00000004000CAFD1ECE774
:101990002DE9F041002590460E460446202728E018
:1019A0004069C043C0060CD454F8301B6FF01000DF
:1019B000486144F810596777A577206A2062257737
:1019C00014E0FEF779FFA0EB0800B04200D886B91A
:1019D00020684069C04340060BD544F8305F677308
:1019E000A573206940F02000206125730120BDE827
:1019F000F08120684169C9434906D1D40020F6E747
:101A000070B516460D4604461EE02046FFF7B7FDAA
:101A100008B1012070BD681C16D0FEF74DFF801B79
:101A2000A84200D885B920684069C04300060BD59C
:101A3000002044F8300F20216173A073216941F028
:101A4000200121612073E4E720684069C04300065B
:101A5000DBD4002070BD000010B5104C00F068F819
:101A6000C4E90601D4E9082300F02CFC21F0004170
:101A70004FF033320A4B00F0EFFBE06801D2401C1C
:101A8000E060032804D92069401C20610020E06048
:101A9000D4E90601C4E90801206910BD0000002056
:101AA0003333E33FF0B585B0012504A8CDE9000547
:101AB0004FF47A742B467522D02102941B48FFF70D
:101AC0005BF89DF8100068282ED1002703AE8DF832
:101AD0000C700096CDE9015401236B22D0211348EC
:101AE000FFF772F907208DF80C000096CDE901543C
:101AF00001231922D0210D48FFF766F98DF80C70EB
:101B00000096CDE9015401231C22D0210748FFF79C
:101B10005BF98DF80C700096CDE9015401231B226E
:101B2000D0210248FFF750F905B0F0BD4800002071
:101B30001FB54FF47A72022103A88DE80700012334
:101B40003F22D0210A48FFF717F8BDF80C000949D9
:101B500040BA00B2888000F02DFA6FF00D0200F05C
:101B6000CDFC04B00022BDE81040034B00F076BA73
:101B70004800002000000020000024402DE9F04132
:101B800086B000242D480094019402940394816946
:101B900041F010018161816901F0100104918169B6
:101BA00041F020018161816901F020010491816986
:101BB00041F004018161816901F0040104918169AE
:101BC00041F00801816180691D4F00F008004FF469
:101BD00000550490002229463846FEF767FEDFF8DC
:101BE0006480002240214046FEF760FE00950226F8
:101BF00001250396CDE9015469463846FEF75EFD9E
:101C00004020CDE90005CDE9024669464046FEF791
:101C100055FD4FF4407000900B48CDE90105694631
:101C20004046FEF74BFD002211461720FFF704FA4D
:101C30001720FFF7F4F906B0BDE8F081001002406C
:101C4000001001400008014000002110FEE7FEE7FF
:101C50007047704704480168491C01604168491C8D
:101C60004160FFF777B900003000002030B58FB039
:101C700028216846FEF730FB14210AA8FEF72CFB4A
:101C800001252804CDE90050002407946846FFF799
:101C9000D1FA08B172B6FEE70F200A90CDE90B54D5
:101CA0000D9400210AA80E94FFF7F8F9002801D03E
:101CB00072B6FEE70FB030BD7047FEE70907090EA8
:101CC000002804DB00F1E02080F80014704700F0E9
:101CD0000F0000F1E02080F8141D70471CB5494842
:101CE0004FF47A760068B0FBF6F14FF0E0204161E6
:101CF00007210161FFF736F9FFF7B8FFFFF73EFF55
:101D000042484149002401604149C0E901144FF4AF
:101D10008041C0E9034144618461C4610462FEF70B
:101D2000D1FD08B172B6FEE7FFF7BCFE02203749CD
:101D3000009010234E2201F15400FEF7B3FB354D05
:101D4000354FDFF8D880DFF8D8A04FF40059686825
:101D500001281AD16C602D485430FEF799FB2B48AE
:101D6000002201215430FEF7EEFB28482DA154300B
:101D7000FEF70EFC2548012205215430FEF7E3FB57
:101D800022482CA15430FEF703FC2868C0070AD073
:101D9000012249465046FEF789FD01224021404676
:101DA000FEF784FDD3E7002240214046FEF77EFD8A
:101DB0003868B04204D33C6049465046FEF76EFD99
:101DC0001248002201215430FEF7BDFB0F4815A137
:101DD0005430FEF7DDFBFFF73FFE024616A101A8D7
:101DE000FEF7F6F90948012205215430FEF7ABFB56
:101DF000064801A95430FEF7CBFB3220FEF73EFC2B
:101E0000A5E70000440000200054004048000020E6
:101E1000A0860100280000203400002000080140B6
:101E200000100140536F2062756F63206368616E1C
:101E300000000000300000002564000010B591EAA9
:101E4000030F48BF83F0004300F14482841A71EB12
:101E5000030C05D2121943EB0C03001B61EB0C01C0
:101E6000DFF824E14FEA1154A4EB135C1EEA430FA0
:101E700018BF9EEA445F73D023EA0E03DCF1200E04
:101E800021EA045143F4801332D322FA0CFE10EB02
:101E90000E0023FA0CFE41EB0E01CCF1200E03FAEA
:101EA0000EFE10EB0E0051F10001B1F5801FCCF1D8
:101EB000200E32D201EB045112FA0EF2BDE81040AE
:101EC00058BF7047401C38BF5FEA420218BF7047D6
:101ED000002814BF20F0010041F100014FEA410346
:101EE00013F5001F38BF7047A1F1C04100F0AEB933
:101EF000012A43EB0302ACF1200CDCF11F0E32BFD0
:101F00004FF0000E23FA0CF310EB030041EB0451E9
:101F1000B4EB115FD0D0A1EB045101F58011490859
:101F20005FEA300001EB04510ED350F1000038BFDE
:101F300012FA0EFE08D1BDE81040C9E7401C38BFB8
:101F40005FEA4202CAD1C3E7BDE810404FEA41034D
:101F500013F5001F38BF7047A1F1C04100F076B9FA
:101F60009EEA445F08D011EA5E0FBDE8104004BF4E
:101F700001F0004100207047BDE8104070B500F04E
:101F800017F900BF64FBBE3E0000E0FF02494FF0BE
:101F9000000000F081BA00BF0000F87F491058BF70
:101FA000C1F140415B1058BFC3F140438B42EFF396
:101FB0000080704710F0004248BF4042B0FA80F302
:101FC00010FA03F10AD0C3F11D0303F580634FEA51
:101FD000415002EB035202EBD12170474FF0000059
:101FE0007047000051EA030C17D41CF5801F58BF3E
:101FF000BCF5801F00F10680994218BF704708BFEA
:102000009042704707D711F5801F58BF13F5801F06
:1020100019D499427047894270471CF5801F08D532
:10202000BCF5801FF7D58B4218BF704708BF8242AE
:1020300070474FF4001C1CEB410F38BF1CEB430FE3
:1020400001D28B42704770B500F0B2F8922449007B
:102050004FF000514FF08053FFF7A0BFDFF848C1A9
:1020600070B51CEA111E1EBF1CEA13159EEA0C0F68
:1020700095EA0C0F00F06F8081EA030423EA4C1309
:102080004EEAD47E21EA4C1141F4801143F48013CE
:10209000AE44A1FB024CA0FB0365AEF17F7E361976
:1020A00055EB0C05A1FB034C4CF10003A0FB021CFB
:1020B00016EB0C06654153F10003094218BF46F0C8
:1020C000010613F4007F0BD14FEA03314FEA0530CC
:1020D000340341EA155140EA16506FF003020AE05A
:1020E0004FEAC3214FEAC520F40241EA555140EAC4
:1020F00056506FF0020202EB2E4201EB025585EAC8
:10210000CE710AD05FEA440C18BF24F0004450F1AD
:10211000000041F1000120EAD47040F2FE7C6245EB
:1021200000D270BDA84214BF4FF080444FF040442D
:10213000002E08BF0024BEF1806FA8BFA1F1C041EE
:10214000BDE8704080F282804FF0000001F1C04194
:1021500001F0004170479EEA0C0F0CEA131518BFFE
:1021600095EA0C0F06D04FF0000081EA030E0EF046
:10217000004170BD00F01CF88900013E00F007B876
:1021800000F009B84FEA430C5FEA5C5C08D081EAD2
:10219000030100F05BB84FEA410C5FEA5C5CF6D1EA
:1021A0004FF00000014970470000FF070000F87F72
:1021B0000EF1020E2EF0030E5EF8046B364205D4CB
:1021C000012A43EB030515F5001F12D8012841EB46
:1021D000010C1CF5001F0CD80ED14FEAD17C15F56F
:1021E000001F0CEB4C0C0CF1020C08BF4CEBD37C29
:1021F00004E04FF0080C01E04FEAD37C0CEB4C05F7
:1022000026FA05F606F00706B6F1040C06D20EEB28
:10221000860CBDE870404CF0010C6047DFE80CF024
:10222000090B02024FF000414FF00000A1F5002120
:1022300070BD19461046012851EB010418BFD4F5B2
:10224000001484BF002001F0004170BD0808A0F513
:1022500000114FEA3101704753EA010C17D41CF505
:10226000801F58BFBCF5801F00F106808B4218BF4D
:10227000704708BF8242704707D713F5801F58BFC9
:1022800011F5801F19D48B4270479B4270471CF593
:10229000801F08D5BCF5801FF7D5994218BF70473D
:1022A00008BF904270474FF4001C1CEB430F38BF2F
:1022B0001CEB410F01D2994270470FB40CBC03BC18
:1022C000FFF7C1BE10B591EA030F48BF83F000438A
:1022D0003FF5BCAD841A71EB030C07D212198CF0D8
:1022E000004C43EB0C03001B61EB0C01DFF8A4E195
:1022F0004FEA1154A4EB135C1EEA430F18BF9EEA89
:10230000445F00F0B08023EA6E03524221EA045198
:10231000C3EB6E0338BF5B1EDCF1200E25D322FA1F
:102320000CFE10EB0E0043FA0CFE41EB0E01CCF15B
:10233000200E03FA0EFE10EB0E0051F10001CCF15D
:10234000200E29D412FA0EF201EB0451BDE8104020
:1023500058BF7047401C1CBFB2F1004F70470028A7
:102360000CBF491C20F00100704712EB020E43EB3A
:10237000030218BF4FF0010E4EEA4202ACF1200CEE
:10238000DCF11E0E54D943FA0CFE10EB0E0051F195
:10239000FF31CCF11E0ED5D50EF1010E12FA0EFE54
:1023A000404141EB010101EB445C5FEA5C5C10D908
:1023B00010EBDE7001EB045138BFBEF1004FBDE8F9
:1023C000104018BF704700280CBF491C20F00100C6
:1023D000704730D24FEAD42C11F5001124F4006478
:1023E0001BD0B1FA81F20B3AA41AA41ED2F1200339
:1023F000914030FA03F31943904001EBCC71002C6B
:1024000001EB0451BDE81040A8BF704701F1C04185
:102410004FF0000001F000417047B0FA80F310FA6D
:1024200003F100D110BDE41A173C4805C90AE4E7DE
:1024300001EB045110BD491001EB0451BDE81040FF
:102440004FEA300002E04FF0000170474A0008BF39
:102450000042F8D0B2F5001F28BF704701F00041DC
:102460004FF0000070479EEA445F07D011EA5E0F0C
:10247000BDE8104004BF002100207047BDE81040B7
:1024800070B5FFF795FE00BF40DFF63E83F00041D8
:10249000104670470000E0FF0CF00F03092B08BF47
:1024A000082000F059800A2B0BD0082B18BF70476A
:1024B00008BF1CF0400F0AD04FF000004FF00001A1
:1024C00070471CF0400F18BF4FF0004070471CF0E1
:1024D000100F08D020F0704300F07F4242EAD30191
:1024E0004FEA4370704700F0604021F07F4242EABB
:1024F000000201F07F4040EA727070474FF0FF0C1D
:102500004CF4E06C1CEA11531CBF9CEA030C94458C
:10251000C2BFDA4201EB02517047002B0DD0BCF173
:10252000000F0FD0002A01F00041A4BF41F0E041AC
:1025300041F07F614FF00000704701F000414FF023
:102540000000704750EA01334FF09B0C18BF4CF06D
:10255000806C7FF41BAD70471CF4801F11D01CF4FD
:10256000E02F03D06FEACC31490070474FF0405064
:10257000EFF3008222F0704242EA000282F3008808
:1025800070474FF000007047010202030405060780
:1025900008090A0B0C0D0E0F1010000000000000BF
:1025A0000000010203040607080900000000010200
:1025B00003040000D42500080000002048000000AB
:1025C000280100081C26000848000020C006000062
:1025D00044010008000000000000000000000000AE
:1025E00000000000000000000000000000000000EB
:1025F00000000000000000000000000000000000DB
:1026000000000000000000000000000001000000C9
:0C26100010000000000000000024F40096
:04000005080001915D
:00000001FF
